:03091100012700BB
:1008E90020C0037F002220C1037F022220FD037F55
:0508F90001227F19221D
:07096D00D2C0D2C1D2FD226D
:10036A001209498F0C8E0B8D0A8C097827E61460C6
:10037A003014607614700302043D240360030204FF
:10038A00841208E97826EFF664197003020484AF30
:10039A000CAE0BAD0AAC09782212058578277601D6
:1003AA00227822120578C3E50C9BFFE50B9AFEE53D
:1003BA000A99FDE50998FCE47B14FAF9F8D31205C9
:1003CA005B40030204841208E98F08E50878266670
:1003DA007016FD120883AF0CAE0BAD0AAC09782279
:1003EA001205857827760222807E1208E98F08E5B1
:1003FA0008B41912AF0CAE0BAD0AAC09782212057B
:10040A008578277603227822120578C3E50C9BFFAC
:10041A00E50B9AFEE50A99FDE50998FCE47BFAFAF0
:10042A00F9F8C312055B50527826E6FF7D011208DF
:10043A0083803A7822120578C3E50C9BFFE50B9A74
:10044A00FEE50A99FDE50998FCE47B14FAF9F8D36C
:10045A0012055B50251208E98F08E508B4190E78D1
:10046A0026E6FF7D02120883E47827F622AF0CAE57
:0A047A000BAD0AAC097822120585CB
:010484002255
:06075E008B0A8A0B890CD6
:10076400782CE6FF08E66F6033E94A4B600874288A
:100774002FF8E6120549E50F450E450D600E742A63
:100784002FF8E6AB0DAA0EA90F1205490FEFC3947B
:0E079400024002E4FF782CA6077F01227F00BE
:0107A2002234
:10088300782DE6FC04FEC394024002E4FE782CE6D5
:100893006E601374282CF8A607742A2CF8A6057822
:0808A3002DA6067F01227F0053
:0108AB00222A
:0F0922006572726F7220706172616D2E0D0A0026
:0A091400053401F401F400012EFF88
:03097900C2C222D5
:09095300EF6003C2C222D2C222ED
:0206A7008F0AB8
:1006A900750B34E50A7013A80B76010876F4E50B8F
:1006B9002402F876010876F48039E50AB40113A812
:1006C9000B76000876C8E50B2402F8760A0876F05E
:1006D9008021E50AB40213A80B76000876C8E50B59
:1006E9002402F8760308762080097BFF7A097922AB
:1006F900020070782EE6650A6009A60AE50B240453
:03070900F876017E
:01070C0022CA
:10048500750C34E50C2404F8E6600BE47833F6E5E6
:100495000C2404F8E4F61209498F0B8E0A8D098C99
:1004A500087833E614600C146050240260030205DA
:1004B50048807A782F120578C3E50B9BFFE50A9AE9
:1004C500FEE50999FDE50898FCC006C007A80CE6FD
:1004D500FE08E6FBAA06E4F9F8D007D006D3120514
:1004E5005B5060AF0BAE0AAD09AC08782F120585DD
:1004F500E4FF1209537833760222782F120578C368
:10050500E50B9BFFE50A9AFEE50999FDE50898FCD0
:10051500C006C007E50C2402F8E6FE08E6FBAA06BD
:10052500E4F9F8D007D006D312055B50167F011207
:100535000953AF0BAE0AAD09AC08782F12058578C3
:0305450033760109
:010548002290
:100859006B6579636F64653D256275206B65797396
:10086900746174653D2562750D0A0048656C6C6F8D
:0A08790020776F726C642E0D0A00E8
:03091E00013D0098
:1008AC00E4F593F594F591F592F595F596F5B1F58A
:1008BC00B2F5B3F5B4F5C9F5CAF5CBF5CCF5E1F560
:0208CC00E22226
:1007E700750D00750E00750F097B007A00790812E8
:1007F700075EEF6029E5087016E5097012783D0677
:10080700E6D394024002E4F6783DE6FF1206A77BA2
:0E081700FF7A08795985080F850910120070C4
:0108250022B0
:100826001208AC7FE87E031208FE7F017E001207E5
:10083600A31208CE12097912096D1209317BFF7ACB
:10084600087974120070D2AF12048512036A120777
:03085600E780F543
:02097C00F8CDB4
:1008CE00E58954F04401F58990097CE493FE7401A6
:0B08DE0093F58AEEF58CD2A9D28C2293
:03000B0002070DDC
:10070D00C0E0C0F0C083C082C0D075D000C000C0B2
:10071D0004C005C006C00790097CE493FE740193E4
:10072D00F58AEEF58C783912056CEF2401FFE43E65
:10073D00FEE43DFDE43CFC7839120585D007D0067A
:10074D00D005D004D000D0D0D082D083D0F0D0E06E
:01075D003269
:09094900C2AF783912056CD2AF7F
:010952002282
:0A093E0000007F167E80DEFEDFFC65
:01094800228C
:040974007F03DFFE20
:01097800225C
:070003000000007F34DFFE66
:01000A0022D3
:08095C007F037E23DEFEDFFCB9
:010964002270
:1008FE00AD07AC06ED4C600A12093EED1D70F51CFD
:03090E0080F22252
:1007A300AD07AC06C3ED9464EC9400400D12095CF4
:1007B300749C2DFD74FF3CFC80EAC3ED940AEC9419
:1007C30000400D12000374F62DFD74FF3CFC80EA1B
:1007D300D3ED9400EC9400400A120974ED1D70F0FF
:0407E3001C80ED2267
:0D09310075D7FC75D6FF438E1175985022C6
:080965008F993099FDC299221F
:0300000002060DE8
:10060D0078FFE4F6D8FD9000007F007E20E4F0A393
:0A061D00DFFCDEFA75813D02066283
:10062700020826E493A3F8E493A34003F68001F2BB
:1006370008DFF48029E493A3F85407240CC8C333D4
:10064700C4540F4420C8834004F456800146F6DFA3
:10065700E4800B0102040810204080900911E47E19
:10066700019360BCA3FF543F30E509541FFEE49398
:10067700A360010ECF54C025E060A840B8E493A35F
:10068700FAE493A3F8E493A3C8C582C8CAC583CA8A
:10069700F0A3C8C582C8CAC583CADFE9DEE780BE42
:0109210000D5
:10054900BB010689828A83F0225002F722BBFE0191
:02055900F3228B
:10055B00EB9FF5F0EA9E42F0E99D42F0E89C45F0F6
:01056B00226D
:0C056C00E6FC08E6FD08E6FE08E6FF22BB
:0D057800E6FB08E6F908E6FA08E6CBF822F3
:0C058500ECF608EDF608EEF608EFF622A2
:10000E00E51B240FF8E6051B22780C300702780F4B
:10001E00E475F0011205D70205912000EB7F2ED278
:10002E00008018EF540F2490D43440D4FF30040BCA
:10003E00EF24BFB41A0050032461FFE51C600215C3
:10004E001C051FE51F7002051E30070D780CE475A8
:10005E00F0011205D7EF0205490209657403D207B4
:10006E008003E4C207F51B8B0C8A0D890EE4F51C88
:10007E00F51EF51FE51C60077F2012004980F575FF
:10008E001DFFC201C200C202C203C205C206C208DF
:10009E00120017FF700D3007057F0012005AAF1FB8
:1000AE00AE1E22B4255FC2D5C204120017FF24D0A3
:1000BE00B40A00501A75F00A781C30D50508B6FF40
:1000CE000106C6A426F620D5047002D20380D924D8
:1000DE00CFB41A00EF5004C2E5D20402025AD20184
:1000EE0080C6D20080C0D20280BCD2D580BAD205E2
:1000FE0080B47F201200492002077401B51C004015
:10010E00F112000EFF120049020082D208D20680C0
:10011E009512000EFB12000EFA12000EF94A4B70E9
:10012E0006792B7A037BFF20022EE51C602A7E00C7
:10013E008E827583001205AA60060EEE651D70F0A4
:10014E00C2D5EBC0E0EAC0E0E9C0E0EE1202A1D0F9
:10015E00E0F9D0E0FAD0E0FB120591FF60AAEBC007
:10016E00E0EAC0E0E9C0E0120049D0E02401F9D095
:10017E00E03400FAD0E0FBE51D0460DCD51DD9802B
:10018E00877BFF7A02799DD202809C79108002795A
:10019E0008C206C2088008D2D5790A8004790AC23C
:1001AE00D5E51D047002F51DE4FAFDFEFF12000EEA
:1001BE00FC7B0820011312000EFD7B1030000A128A
:1001CE00000EFE12000EFF7B20EC3382D592D5502E
:1001DE0013C3E43000069FFFE49EFEE42001039D5E
:1001EE00FDE49CFCE4CBF8C201EC700CCFCECDCC80
:1001FE00E824F8F870F38017C3EF33FFEE33FEED0B
:10020E0033FDEC33FCEB33FB994002FB0FD8E9EBEB
:10021E00300105F8D0E0C448B201C0E00AEC4D4E02
:10022E004F78207B0070C2EAB51D0040BCC0E012C2
:10023E0002A3D0F0D0E0200104C4C0E0C4B201C0DB
:10024E00F0120032D0F0D5F0EB0200821205E70179
:10025E001F5301995800F04C00EC42019D4F01A52F
:0F026E004401A54901054301AB55018F46018F9E
:10027D0045018F47034B5000F42D00F82E011B2B29
:10028D0000FC2301192003342A00B4480000011397
:10029D003F3F3F00790AA2D5200314300509B9105C
:1002AD00020404B9080104A2D5200602500104205D
:1002BD0002689202B51C005034C0E07F2030031953
:1002CD007F30A20272067205500F1202FAC202C2EC
:1002DD0006C205C2087F30800F300503E9C0E01269
:1002ED000049300503D0E0F9D0E0B51CCC3005173E
:1002FD007F30B9100C1200497F583004077F788089
:10030D0003B908031200493002057F2D0200497F11
:10031D00202008F87F2B2006F322920280CF286E32
:10032D00756C6C2900D20112000E3001F8C20178F3
:10033D001C30D50108F60200B42D50434958120067
:10034D000E2403B405004001E49003469312003AD5
:0D035D00743A12003AD203751C0402019993
:10059100BB010689828A83E0225002E722BBFE0268
:0905A100E32289828A83E493229B
:1005AA00BB010CE58229F582E5833AF583E0225006
:1005BA0006E92582F8E622BBFE06E92582F8E22250
:0D05CA00E58229F582E5833AF583E493226A
:1005D700FAE6FB0808E6F925F0F618E6CA3AF62225
:1005E700D083D082F8E4937012740193700DA3A3A3
:1005F70093F8740193F5828883E4737402936860B7
:06060700EFA3A3A380DFB6
:00000001FF
