:10311E007470203D20256C750D0A007265747572F1
:10312E006E20746F20737461746520302E0D0A004A
:10313E0073746174653D2562752C7370616E3D25E7
:10314E006C750D0A006572726F72207370616E2C51
:10315E00206E6F742030206F7220312C20726574B7
:10316E0075726E20746F20302E0D0A0069725F63C7
:10317E006F6465203D2030782562780D0A007265F7
:10318E00706561740D0A00726573746172740D0A54
:10319E0000726570656174206761702E0D0A007390
:1031AE0074617274206761702E0D0A00696D706F04
:1031BE00737369626C6520686572652E2E0D0A0048
:0131CE000000
:03418200018A2E81
:0942D100D2B2D288C289D2A8221F
:102C6100EF1204792CD2002CD5012CFC022CFF038D
:102C71002D08042D02052D0E062D05072D0B082DFF
:102C810011092D140A2CF6102CD8112CDB122CDE74
:102C9100132CE1142CE4152CE7162CEA172CED1853
:102CA1002CF0192CF91A2CF31B2D17202D1A212D7C
:102CB1001D222D20232D23242D26252D29262D2CA3
:102CC100272D2F282D32292D352A2D382B00002D87
:102CD1003B7F1C227F17227F05227F06227F07224E
:102CE1007F08227F09227F0A227F0B227F0C227F0D
:102CF1000D227F18227F0E227F1F227F16227F1F27
:102D0100227F13227F11227F1B227F12227F142216
:102D11007F23227F24227F25227F26227F27227F55
:102D210028227F29227F2A227F2B227F2C227F01AA
:0D2D3100227F02227F03227F04227F2D22B9
:1038F600EF120479393D0039400139430239460453
:10390600394905394C06394F0839520939550A39AA
:10391600580C395B0D395E0E3961103964113967FF
:1039260012396A14396D15397016397318397619C2
:1039360039791A0000397C7F1C227F2D227F1622BE
:103946007F1D227F13227F1F227F11227F1B227F52
:1039560012227F1E227F14227F0E227F05227F06DF
:10396600227F07227F08227F09227F0A227F0B22DD
:093976007F0C227F0D227F2D221F
:10074B00E4F52BC2AF900001E0FF900000E06F607A
:10075B0048A3E0FF900000E06F603EEF25E02466C9
:10076B00F582E43400F583E0F529A3E0F52A74342F
:10077B002FF582E43400F583E0F52774022FF58220
:10078B00E43400F583E0F526752B010FEFC39432AB
:10079B004002E4FF900001EFF0D2AFE52B6069E47B
:1007AB00852A25852924F523F522AF25AE24AD23F3
:1007BB00AC2278101203658F258E248D238C227525
:1007CB00290085262AE52A752A00F529E527422ADC
:1007DB00E525452AF525E5244529F524E523F523CB
:1007EB00E522F52212431478821203919031CEE464
:1007FB009360157BFF7A31791E85256F85246E8575
:10080B00236D85226C120C05787DE660451243142E
:10081B007882120384C3EF9BFFEE9AFEED99FDECF9
:10082B0098FCE47B96FAF9F8D31203415024E52B9C
:10083B007020788AE6FF642E60057D02124043E447
:10084B00787DF69031CE9360097BFF7A317929124E
:10085B000C05E52B7003020BA2787E120384C3E513
:10086B00259BF52FE5249AF52EE52399F52DE52209
:10087B0098F52CAF25AE24AD23AC22787E120391D4
:10088B009031CEE493601A7BFF7A31793E787DE626
:10089B00F56C852F70852E6F852D6E852C6D120C4A
:1008AB0005787DE6146016047039788A762EE47824
:1008BB0086F608F608F608F6787D760122E47FDEE8
:1008CB007E5EFDFCAB2FAA2EA92DA82CD3120341C3
:1008DB004079E47FFE7E61FDFCA82C120341506B36
:1008EB00020B25E47FC27E05FDFCAB2FAA2EA92DA2
:1008FB00A82CD31203414013E47FE27E08FDFCA831
:10090B002C1203415005E4F5288045E47FDC7E0D75
:10091B00FDFCAB2FAA2EA92DA82CD31203414013FB
:10092B00E47FFC7E10FDFCA82C12034150057528BA
:10093B0001801D787DE6C3942250159031CEE4934F
:10094B0060097BFF7A317953120C05E4787DF6222E
:10095B00787DE6FFC3940A501AE528B40113EF24FF
:10096B00FEFF7401A807088002C333D8FC788646C3
:10097B00F68044787DE6FFC39412501AE528B40143
:10098B0013EF24F6FF7401A807088002C333D8FCC9
:10099B00788746F68021787DE6FFC3941A501CE5D4
:1009AB0028B40113EF24EEFF7401A807088002C3DB
:1009BB0033D8FC788846F6787D0622787DE6FFC32F
:1009CB0094224003020A7EE528B40113EF24E6FFCC
:1009DB007401A807088002C333D8FC788946F678DF
:1009EB007D06E664226003020BA27886E664207023
:1009FB002C08E664DF70267889E6FD18E6FF2DFDEE
:100A0B00E433FCEDF44C70661238F6788AEFF6E4BA
:100A1B00FD1240439031CEE493605380317886E6EB
:100A2B0064CC703A08E6641D70347889E6FD18E6EC
:100A3B00FF2DFDE433FCEDF44C7033122C61788AFE
:100A4B00EFF6E4FD1240439031CEE49360207BFF40
:100A5B007A31797A7888E6F56C120C0580107888F3
:100A6B00E6FF122C61788AEFF6E4FD124043E4783E
:100A7B008BF622787DE664226003020BA27FB07EA8
:100A8B004EFDFCAB2FAA2EA92DA82CD3120341404F
:100A9B003BE47FD07E51FDFCA82C120341502D90DE
:100AAB0031CEE49360097BFF7A31798C120C057897
:100ABB008B06E6C394045003020BA218E6FF642EC8
:100ACB0060057D01124043788B760222E47FDE7E47
:100ADB005EFDFCAB2FAA2EA92DA82CD312034140EF
:100AEB003EE47FFE7E61FDFCA82C1203415030904A
:100AFB0031CEE49360097BFF7A317995120C05783E
:100B0B008AE6FF642E60057D02124043788A762EBA
:100B1B00E47886F608F608F608F6787D7602227FEA
:100B2B00C87EB37D027C00AB2FAA2EA92DA82CD397
:100B3B00120341401E7FE87EB67D027C00A82C127A
:100B4B000341500F9031CEE493604C7BFF7A3179A7
:100B5B009F80417F8E7EE07DFF7CFFAB2FAA2EA96D
:100B6B002DA82CD3120341401E7F567E657D017C40
:100B7B0000A82C120341500F9031CEE49360187BE8
:100B8B00FF7A3179AD800D9031CEE49360097BFF14
:070B9B007A3179BA120C0552
:010BA2002230
:0300030002332B9A
:10332B00C0E0C0F0C083C082C0D075D000C000C068
:10333B0004C005C006C007900000E02401FFE43381
:10334B00FE7C007D321201A8AF05A3E06D6066C262
:10335B008C900000E02402F582E43400F583E58CC8
:10336B00F0900000E02434F582E43400F583E58A24
:10337B00F078A0E6FE08E6FF900000E025E024666A
:10338B00F582E43400F583EEF0A3EFF0308D169068
:10339B000000E025E02466F582E43400F583E47553
:1033AB00F0011201FDD28C900000E004F0E0C39418
:1033BB00324002E4F0D007D006D005D004D000D0C4
:0A33CB00D0D082D083D0F0D0E032E1
:101A54004B45595F4631004B45595F4632004B4573
:101A6400595F4633004B45595F4634004B45595F37
:101A740031004B45595F32004B45595F33004B45AC
:101A8400595F34004B45595F35004B45595F36006B
:101A94004B45595F37004B45595F38004B45595FFB
:101AA40039004B45595F30004B45595F415354450C
:101AB4005249534B004B45595F504F554E44004BD0
:101AC40045595F4C454654004B45595F5550004BB2
:101AD40045595F444F574E004B45595F524947485B
:101AE40054004B45595F534554004B45595F4D4590
:101AF4004E55004B45595F4D555445004B45595F74
:101B040054564156004B45595F4449474954004B8C
:101B140045595F4155544F004B45595F4F4B004B5E
:101B240045595F504F574552004B45595F504C55EE
:101B340053004B45595F4D494E5553004B45595F32
:101B440052455455524E004B45595F434C45415202
:101B5400004B45595F4348414E4745504943004B6C
:101B640045595F45584954004B45595F50524556B5
:101B740050414745004B45595F4E455854504147E5
:101B840045004B45595F4348414E4E454C4C4953E3
:101B940054004B45595F50524F4752414D475549A8
:101BA4004445004B45595F50524F4752414D494EB1
:101BB400464F004B45595F494E464F53455256498F
:101BC4004345004B45595F524544004B45595F47D7
:101BD4005245454E004B45595F59454C4C4F5700B3
:101BE4004B45595F424C554500756E6B6E6F776E71
:101BF400206B6579002020007E7E707265737365AA
:101C0400642E003C3E72657065617465642E002A22
:101C14002A72656C65617365642E00696D706F73FB
:101C24007369626C6520746F2072756E20686572CA
:061C3400652E000D0A0000
:06418500010E00010F0015
:10000E0020C0037F152220C1037F1E2220FD037F07
:05001E001D227F2E22CF
:07430D00D2C0D2C1D2FD2293
:102764001243148F268E258D248C23780EE6146054
:10277400301460761470030228372403600302289F
:102784007E12000E780DEFF6642E700302287EAFE1
:1027940026AE25AD24AC237809120391780E760178
:1027A400227809120384C3E5269BFFE5259AFEE5FA
:1027B4002499FDE52398FCE47B14FAF9F8D3120379
:1027C40041400302287E12000E8F22E522780D6616
:1027D4007016FD124043AF26AE25AD24AC23780914
:1027E400120391780E760222807E12000E8F22E56B
:1027F40022B42E12AF26AE25AD24AC2378091203E1
:1028040091780E7603227809120384C3E5269BFF90
:10281400E5259AFEE52499FDE52398FCE47BFAFA84
:10282400F9F8C31203415052780DE6FF7D011240BE
:1028340043803A7809120384C3E5269BFFE5259A71
:10284400FEE52499FDE52398FCE47B14FAF9F8D31A
:10285400120341502512000E8F22E522B42E0E7869
:102864000DE6FF7D02124043E4780EF622AF26AE59
:0A28740025AD24AC2378091203916E
:01287E002237
:063F47008B248A25892667
:103F4D007818E6FF08E66F6033E94A4B6008741095
:103F5D002FF8E6120162E52945284527600E7414F5
:103F6D002FF8E6AB27AA28A9291201620FEFC394F7
:0E3F7D00044002E4FF7818A6077F01227F00AF
:013F8B002213
:104043007819E6FC04FEC394044002E4FE7818E603
:104053006E601374102CF8A60774142CF8A6057858
:0840630019A6067F01227F006F
:01406B002232
:1017BF007527007528007529237B007A007922127E
:1017CF003F47EF7003021A53E52214B42C00400375
:1017DF000219F09017F075F003A4C58325F0C583A7
:1017EF007302187402187D02188602188F02189857
:1017FF000218A10218AA0218B30218BC0218C502D7
:10180F0018CE0218D70218E00218E90218F20218CF
:10181F00FB02190402191F02190D021916021928C9
:10182F0002193102193A02194302194C02195502D1
:10183F00195E0219670219700219780219800219CC
:10184F00880219900219980219A00219A80219B05A
:10185F000219B80219C00219C80219D00219D80208
:10186F0019E00219E87BFF7A1A79540219F67BFF07
:10187F007A1A795B0219F67BFF7A1A79620219F6E6
:10188F007BFF7A1A79690219F67BFF7A1A7970024F
:10189F0019F67BFF7A1A79760219F67BFF7A1A7995
:1018AF007C0219F67BFF7A1A79820219F67BFF7A8E
:1018BF001A79880219F67BFF7A1A798E0219F67B4C
:1018CF00FF7A1A79940219F67BFF7A1A799A02191C
:1018DF00F67BFF7A1A79A00219F67BFF7A1A79A69E
:1018EF000219F67BFF7A1A79AC0219F67BFF7A1A86
:1018FF0079B90219F67BFF7A1A79C30219F67BFFC1
:10190F007A1A79CC0219F67BFF7A1A79D30219F673
:10191F007BFF7A1A79DC0219F67BFF7A1A79E602D5
:10192F0019F67BFF7A1A79EE0219F67BFF7A1A798C
:10193F00F70219F67BFF7A1B79000219F67BFF7A03
:10194F001B79090219F67BFF7A1B79130219F67BB3
:10195F00FF7A1B791C0219F67BFF7A1B7923021978
:10196F00F67BFF7A1B792D807E7BFF7A1B79368081
:10197F00767BFF7A1B7940806E7BFF7A1B794B80D9
:10198F00667BFF7A1B7955805E7BFF7A1B796380BC
:10199F00567BFF7A1B796C804E7BFF7A1B7979809F
:1019AF00467BFF7A1B7986803E7BFF7A1B79968078
:1019BF00367BFF7A1B79A7802E7BFF7A1B79B78046
:1019CF00267BFF7A1B79C7801E7BFF7A1B79CF801E
:1019DF00167BFF7A1B79D9800E7BFF7A1B79E48007
:1019EF00067BFF7A1B79ED120C057BFF7A1B79F9C9
:1019FF00120C05E52314600F146014240270187B79
:101A0F00FF7A1B79FC80167BFF7A1C7907800E7B8F
:101A1F00FF7A1C791380067BFF7A1C791F120C0545
:101A2F007BFF7A1C7937120C05E522B41516E523D6
:101A3F007012780F06E6D394024002E4F6780FE6B0
:041A4F00FF123BC681
:011A53002270
:0F423D006572726F7220706172616D2E0D0A00D2
:0A418B00059201F401F400018CFF1D
:03432300C2C222F1
:0942DA00EF6003C2C222D2C2222D
:023BC6008F244A
:103BC800752592E5247013A82576010876F4E52575
:103BD8002402F876010876F48039E524B40113A8A4
:103BE8002576000876C8E5252402F8760A0876F0D6
:103BF8008021E524B40213A82576000876C8E525B7
:103C08002402F8760308762080097BFF7A42793D02
:103C1800020C05788CE665246009A624E5252404B1
:033C2800F876012A
:013C2B002276
:102EEE00752692E5262404F8E6600BE47891F6E563
:102EFE00262404F8E4F61243148F258E248D238C99
:102F0E00227891E614600C14605024026003022FA4
:102F1E00B1807A788D120384C3E5259BFFE5249A50
:102F2E00FEE52399FDE52298FCC006C007A826E61B
:102F3E00FE08E6FBAA06E4F9F8D007D006D3120382
:102F4E00415060AF25AE24AD23AC22788D12039193
:102F5E00E4FF1242DA7891760222788D120384C34E
:102F6E00E5259BFFE5249AFEE52399FDE52298FCD5
:102F7E00C006C007E5262402F8E6FE08E6FBAA0610
:102F8E00E4F9F8D007D006D312034150167F011290
:102F9E0042DAAF25AE24AD23AC22788D12039178A0
:032FAE0091760118
:012FB10022FD
:0F424C0048656C6C6F20776F726C642E0D0A00E2
:1040E400E4F593F594F591F592F595F596F5B1F51A
:1040F400B2F5B3F5B4F5C9F5CAF5CBF5CCF5E1F5F0
:02410400E222B5
:103EFF001240E47FE87E031241F47F017E00123FFF
:103F0F008C12421A12432312430D1242D112425BFA
:103F1F007BFF7A42794C120C05123630124288D24E
:103F2F00AF122D3E12074B122EEE1227641217BF3F
:083F3F001217BF12350980E9D9
:10421A00E58954F04401F589E4F58AF58CD2A9D2EE
:02422A008C22E4
:03000B0002419E11
:10419E00C0E0C0D075D000C00078A106E61870014E
:0841AE0006D000D0D0D0E032B1
:102D3E00AB8C789BE6FFC3EB9FC394055003022E2A
:102D4E0016789BA603C28CC2AFAA8AAB8C78A0E67B
:102D5E00FE08E6FF308D050FBF00010ED2AFD28CFC
:102D6E00E48F5C8E5BF55AF559AD5AAC597810125A
:102D7E0003658F5C8E5B8D5A8C59AF03EFFEAD02EF
:102D8E00EAFFE55C4FF55CE55B4EF55BE55AF55AFF
:102D9E00E559F5597897120378AB5CAA5BA95AA846
:102DAE0059C3120341500DAF5CAE5BAD5AAC5978AE
:102DBE00970203917897120384C3E55C9BFFE55B52
:102DCE009AFEE55A99FDE55998FCE47B347A07F9A9
:102DDE00F8C31203415031789C120378EF2401FF9F
:102DEE00E43EFEE43DFDE43CFC789C1203917897B2
:102DFE00120378EF2434FFEE3407FEE43DFDE43C8D
:082E0E00FC789712039180ACDF
:012E16002299
:06431400789C12037822E0
:0A42B20000007F167E80DEFEDFFCB8
:0142BC0022DF
:040006007F03DFFE97
:01000A0022D3
:0742F5000000007F34DFFE32
:0142FC00229F
:0842E3007F037E23DEFEDFFCF9
:0142EB0022B0
:1041F400AD07AC06ED4C600A1242B2ED1D70F51C21
:0342040080F22223
:103F8C00AD07AC06C3ED9464EC9400400D1242E313
:103F9C00749C2DFD74FF3CFC80EAC3ED940AEC94F8
:103FAC0000400D1242F574F62DFD74FF3CFC80EAC6
:103FBC00D3ED9400EC9400400A120006ED1D70F055
:043FCC001C80ED2246
:0F425B0075D7FC75D6FF438E11759850D2AC22E3
:0842FD008F993099FDC299224E
:103E6600E4FF8B598A5A895BEFC39D5040C2AF90DD
:103E7600016FE0FEA3E0B50604D2AF80309001707A
:103E8600E02471F582E43401F583E0AB59AA5AA91E
:103E96005B8F82758300120174900170E004F0E07C
:0D3EA600C3948C4002E4F0D2AF000F80BB4B
:013EB30022EC
:03002300023AF0AE
:103AF000C0E0C0F0C083C082C0D075D000C000C09C
:093B000003C004C005C006C007A3
:103B0900309839AB99C29890016FE02401FFE433F2
:103B1900FE7C007D8C1201A8AF05A3E06D601D90AD
:103B2900016FE02471F582E43401F583EBF0900133
:0C3B39006FE004F0E0C3948C4002E4F064
:103B4500D007D006D005D004D003D000D0D0D08285
:073B5500D083D0F0D0E03274
:1040BE008B5A8A5B895CE4FFEFC39D5018AB5AAAFA
:1040CE005BA95C8F82758300120135F5993099FDDD
:0540DE00C2990F80E310
:0140E30022BA
:030000000233D5F3
:1033D50078FFE4F6D8FD9000007F007E20E4F0A39E
:0A33E500DFFCDEFA7581A102342A34
:1021530020090A0D0000746573742D656570726F34
:102163006D00746573742D72746300746573742DDC
:102173006D323570383000786D6F64656D003F00E7
:1021830068656C7000537570706F727420436F6D67
:102193006D616E64204C6973743A0D0A0074657343
:1021A300742D656570726F6D3A2074657374206564
:1021B3006570726F6D207265616420616E64207753
:1021C300726974652066756E6374696F6E2E0D0A8D
:1021D30000746573742D7274633A2074657374208C
:1021E300525443207265616420616E642077726982
:1021F30074652066756E6374696F6E2E0D0A0074C4
:102203006573742D6D32357038303A206D32357008
:10221300383020746573742066756E6374696F6EED
:102223002E0D0A00786D6F64656D3A207472616ECD
:10223300736D69742066696C6520746F20666C61C8
:102243007368206F722064756D702066696C6520F9
:1022530066726F6D20666C617368207468726F7547
:10226300676820786D6F64656D2070726F746F633B
:102273006F6C2E0D0A0068656C70206F72203F3AF8
:1022830020636F6D6D616E64206C6973740D0A0059
:10229300636C656172206F7220636C733A20636CA8
:1022A3006561722073637265656E0D0A00636C6508
:1022B300617200636C73000D0A00636F6D6D616E74
:1022C30064202573206E6F7420737570706F727441
:0922D30065642E0D0A00243E0092
:101C3A00E4F52CAA06A907752D018A2E892F753776
:101C4A00FF7538217539537B007A00792D123D5A78
:101C5A008B308A318932E94A4B6035A832AC31ADD2
:101C6A00307BFF7A21795812061DEF60D1E52C7579
:101C7A00F003A424FDF582E43401F583E530F0A3F2
:101C8A00E531F0A3E532F0052CE52CC3940540AE0E
:101C9A00E52C7003021E129001FDE0FBA3E0FAA3FB
:101CAA00E0F8AC02AD037BFF7A21795912061DEFE9
:101CBA00700B7B017A0179FDAF2C0237E09001FDB0
:101CCA00E0FBA3E0FAA3E0F8AC02AD037BFF7A21C4
:101CDA00796512061DEF700B7B017A0179FDAF2C35
:101CEA000222DC9001FDE0FBA3E0FAA3E0F8AC02DB
:101CFA00AD037BFF7A21796E12061DEF700B7B0113
:101D0A007A0179FDAF2C02386B9001FDE0FBA3E06C
:101D1A00FAA3E0F8AC02AD037BFF7A21797A1206C6
:101D2A001DEF700B7B017A0179FDAF2C02246390C1
:101D3A0001FDE0FBA3E0FAA3E0F8AC02AD037BFFF0
:101D4A007A21798112061DEF601B9001FDE0FBA349
:101D5A00E0FAA3E0F8AC02AD037BFF7A21798312A3
:101D6A00061DEF703E7BFF7A217988120C057BFFF6
:101D7A007A2179A0120C057BFF7A2179D4120C05FD
:101D8A007BFF7A227902120C057BFF7A22792712CD
:101D9A000C057BFF7A227979120C057BFF7A22796E
:101DAA009380629001FDE0FBA3E0FAA3E0F8AC02A5
:101DBA00AD037BFF7A2279B012061DEF601B9001FA
:101DCA00FDE0FBA3E0FAA3E0F8AC02AD037BFF7AE7
:091DDA002279B612061DEF701605
:101DE300E4F5337BFF7A2279BA120C050533E53328
:061DF300C3941E40EE2225
:101DF9009001FDE0FBA3E0FAA3E08B6C8A6DF56E20
:091E09007BFF7A2279BD120C0561
:011E120022AD
:103509007B007A0079227D08123E668F2BE52BD34A
:103519009400500302359DE4F52AE52AC3952B5002
:10352900737422252AF9E4FAFB7D011240BE900248
:103539005CE0FFC3944F502B7422252AF8E6FE6401
:10354900086014740C2FF582E43402F583EEF090D0
:10355900025CE004F0800C90025CE0D3940040032C
:10356900E014F07422252AF8E6B40A2490025CE0FB
:10357900240CF582E43402F583E4F07E027F0C1218
:103589001C3A7BFF7A2279D9120C05E490025CF08F
:04359900052A8086F9
:01359D00220B
:104127000000102120423063408450A560C670E72C
:1041370081089129A14AB16BC18CD1ADE1CEF1EFD4
:103E12008B468A478948AB46AA47A94812011C60CB
:103E22003C85434985444A85454BAB49AA4AA94B3F
:103E320012011CFF601AAB46AA47A94812011CB521
:103E42000701227401254BF54BE4354AF54A80DA25
:103E520074012548F548E43547F54780B97B007A77
:033E6200007900E4
:013E6500223A
:063D5A008B348A35893626
:103D60001203DA8B3A8A3B893CE94A4B7004FBFA2E
:103D7000F922853743853844853945AB3AAA3BA9B2
:103D80003C123E128B3D8A3E893FEA494B600E054C
:103D90003FE53F7002053E14F9E4120162AB3DAA13
:103DA0003EA93FC003C002C001AB34AA35A93612F8
:083DB00003FAAB3AAA3BA93C5F
:013DB80022E8
:04397F008C598D5A78
:10398300E4FDFCE55A155AAE59700215594E606CA8
:10399300AF04EFC4540FF55BEDC4F8540FC868FDD2
:1039A300ECC454F048FC12011CC4540F655B25E0C1
:1039B3002427F582E43441F583E49362047401938C
:1039C3006205AF04EFC4540FF55BEDC4F8540FC8A0
:1039D30068FDECC454F048FC12011C540F655B25D0
:1039E300E02427F582E43441F583E493620474010F
:1039F300936205740129F9E43AFA8087AE04AF05AE
:013A030022A0
:101E130049494320666174616C206572726F722E4A
:101E23005043463835363320696E697420666169DC
:101E33006C65642E0D0A00496E697420383536339B
:101E4300206572726F723A726574203D2025640DAD
:101E53000A00526561642038353633206572726F2B
:101E6300723A726574203D2025640D0A0050434682
:101E7300383536332076657279206C6F7720706F32
:101E83007765722E00706172616D6574657220658D
:101E930072726F722E2E00706172616D20657272A4
:101EA3006F722E005772697465203835363320659A
:101EB30072726F723A726574203D2025640D0A00B8
:101EC30067657400707265737320616E79206B654A
:101ED3007920746F2061626F72742E2E2E0D0A00AA
:101EE30025752D2562752D25627520005745454BB7
:101EF3002025627520002562753A2562753A2562B0
:101F030075200D0A007365740025752D2562752DE6
:101F1300256275002562753A2562753A256275005A
:101F23005365742043616C656E646172204F4B0D81
:101F33000A002D2D2D2D2D2D2D2D2D2D2D2D2D2D1E
:101F43002D2D75736167652D2D2D2D2D2D2D2D2D8A
:101F53002D2D2D2D2D2D2D2D2D2D2D2D2D0D0A001E
:101F63002573206765740D0A2D2D2D2D476574206B
:101F730063757272656E742063616C656E64617201
:101F83002074696D652E0D0A002573207365742016
:101F9300323031362D382D332031323A33303A3422
:101FA300350D0A2D2D2D2D5365742063616C656EDF
:0C1FB3006461722074696D652E0D0A00D7
:0F426A00EFC4540F75F00AA4FEEF540F2EFF227D
:0A416500AB42AA43A944120135FF42
:10416F00EF75F00A84C454F0FEEF75F00A84E5F0A1
:03417F004EFF22CE
:083B5C008F478B488A49894A12
:103B64001241067FA2123A048F4DE54D30E7081248
:103B7400400B7EFF7FFF22AF47123A048F4DE54D85
:103B840030E70812400B7EFF7FFE22E4F54CE54C43
:103B9400C3954B5026AB48AA49A94A854C827583E4
:103BA40000120135FF123A048F4DE54D30E708123B
:103BB400400B7EFF7FFD22054C80D312400BE4FEB8
:013BC400FF01
:013BC50022DD
:08359E008F478B488A49894AD6
:1035A6001241067FA2123A048F4DE54D30E708120C
:1035B600400B7EFF7FFF22AF47123A048F4DE54D49
:1035C60030E70812400B7EFF7FFE2212432C7F0657
:1035D6007E00123F8C1241067FA3123A048F4DE5FE
:1035E6004D30E70812400B7EFF7FFD22E4F54CE5E7
:1035F6004B14FFE54CC39F5017123C92AB48AA49A7
:10360600A94A854C82758300EF120174054C80DF50
:10361600123C2CAB48AA49A94A854C82758300EF17
:0936260012017412400BE4FEFFD6
:01362F002278
:103630007B017A0079D7754B017F0D12359E8E2262
:103640008F23C3E52264809480500E7BFF7A1E791D
:1036500013120C057EFF7FF6229000D7E05403641E
:10366000036045E49000CAF0A3F0A37430F0A3F027
:10367000A37412F0A37414F0A37401F0A37404F003
:10368000A37414F0A37480F0A3F0A3F0A3F0A374C8
:1036900003F0E4A3F0A3F07B017A0079CA754B1024
:1036A000FF123B5C8E228F23E5234522600F7BFFB8
:1036B0007A1E793A85226C85236D120C05AE22AFF5
:0136C00023E6
:0136C10022E6
:062A95008B428A438944D4
:102A9B007B017A0079CA754B10E4FF12359E8E4587
:102AAB008F46E546454560147BFF7A1E7955854573
:102ABB006C85466D120C05AE45AF46229000CCE0FE
:102ACB0030E70E7BFF7A1E7970120C057EFF7FF6C6
:102ADB0022E54445434542700E7BFF7A1E798812EE
:102AEB000C057EFF7FF5229000CCE0547FFF124255
:102AFB006AAB42AA43A944900006EF1201749000FE
:102B0B00CDE0547FFF12426AAB42AA43A944900026
:102B1B0005EF1201749000CEE0543FFF12426AABF6
:102B2B0042AA43A944900004EF1201749000CFE035
:102B3B00543FFF12426AAB42AA43A944900003EFF1
:102B4B001201749000D1E0541FFF12426AAB42AAEB
:102B5B0043A944900002EF1201749000D2E0FF12DF
:102B6B00426AEF24D0FFE43407AB42AA43A9448F57
:072B7B00F012023EE4FEFF30
:012B82002230
:06327F008B428A438944E2
:10328500E94A4B700E7BFF7A1E799A120C057EFF78
:103295007FF622E49000CAF0A3F090000612416583
:1032A5009000CCEFF09000051241659000CDEFF055
:1032B500AB42AA43A94490000412416B9000CEEFA3
:1032C500F0AB42AA43A94490000312416B9000CF92
:1032D500EFF0E4A3F0AB42AA43A9449000021241E7
:1032E5006B9000D1EFF0AB42AA43A944120213241C
:1032F50030FF12416F9000D2EFF07B017A0079CA5E
:10330500754B09E4FF123B5C8E458F46E546454506
:10331500600F7BFF7A1E79A785456C85466D120C7B
:0533250005AE45AF46B6
:01332A002280
:10406C00AB07AA06EB5403700AFC7D641201A8EDA1
:10407C004C700FAE02AF037C017D901201A8ED4C89
:09408C0070047F0180027F002214
:043A7B008E4A8F4B95
:103A7F00E54B2430FFE54A34F8FE7C017D6D1201E1
:103A8F0096E48F518E50F54FF54E754C07754DD10D
:103A9F00C3E54D954BE54C954A5029AF4DAE4C12B1
:103AAF00406CE4FCFDFEE5512FF551EE3550F5501D
:103ABF00ED354FF54FEC354EF54E054DE54D70D0CC
:103ACF00054C80CCE5512406FFE43550FEE4354F1C
:103ADF00FDE4354EFCE47B07FAF9F8120299AF03C7
:013AEF0022B4
:081FBF008E428F438D448B45D7
:101FC700E4F549F548F547F546123A7BE48F49F5BC
:101FD70048F547F546E5441414B40C0040030221C4
:101FE70026901FF675F003A4C58325F0C5837302F9
:101FF70021110220EC0220D70220C20220AD0220CC
:102007009802208302206E02205902204402202FCA
:1020170002201AE549241FF549E43548F548E43517
:1020270047F547E43546F546E549241EF549E435C5
:1020370048F548E43547F547E43546F546E549248C
:102047001FF549E43548F548E43547F547E4354693
:10205700F546E549241EF549E43548F548E4354792
:10206700F547E43546F546E549241FF549E4354883
:10207700F548E43547F547E43546F546E549241F75
:10208700F549E43548F548E43547F547E43546F57D
:1020970046E549241EF549E43548F548E43547F552
:1020A70047E43546F546E549241FF549E43548F543
:1020B70048E43547F547E43546F546E549241EF536
:1020C70049E43548F548E43547F547E43546F546EC
:1020D700E549241FF549E43548F548E43547F54710
:1020E700E43546F546AF43AE4212406CEF6006E575
:1020F70049241D8004E549241CF549E43548F54881
:10210700E43547F547E43546F546E549241FF549E3
:10211700E43548F548E43547F547E43546F546E400
:10212700FCFDFEE5492545F549EE3548F548ED3511
:1021370047F547EC3546F546E47B07FAF9F8AF492A
:0B214700AE48AD47AC46120299AF0352
:01215200226A
:0822DC008F348B358A368937F7
:1022E400E53464017003022429AB35AA36A937907A
:1022F4000003120449A801AC02AD037BFF7A1E79E6
:10230400C312061DEF70657BFF7A1E79C7120C0598
:102314007FE87E031241F47B007A007938122A9513
:102324007BFF7A1E79E385386C85396D853A6E8535
:102334003B6F120C05AB3BAD3AAF39AE38121FBF41
:102344008F6C7BFF7A1E79EF120C057BFF7A1E7966
:10235400F9853C6C853D6D853E6E120C057B007ADB
:1023640000793F7D01123E66BF01A522AB35AA3636
:10237400A937900003120449A801AC02AD037BFF06
:0D2384007A1F790812061DEF60030224295C
:10239100E53464046003022429AB35AA36A93790D9
:1023A10000061204497545FF75461F75470C7548AF
:1023B10000754900754A38754B00754C00754D3AEA
:1023C100754E00754F0075503B120F7D8E408F4149
:1023D100E541640345407050AB35AA36A9379000FA
:1023E100091204497545FF75461F75471775480061
:1023F100754900754A3C754B00754C00754D3D752E
:102401004E00754F0075503E120F7D8E408F41E595
:10241100416403454070117B007A00793812327FA4
:082421007BFF7A1F792380364E
:102429007BFF7A1F7935120C05AB35AA36A937120D
:1024390003DA8B6C8A6D896E7BFF7A1F7963120CC4
:1024490005AB35AA36A9371203DA8B6C8A6D896E0A
:092459007BFF7A1F798C120C053F
:012462002257
:10346F00656570726F6D5F5265616420747279204B
:10347F0025752074696D65732E0D0A006565707270
:10348F006F6D5F577269746520747279202575208E
:10349F0074696D65732E0D0A0055736167653A2067
:1034AF00257320737472696E672D726F2D77726931
:1034BF0074650D0A007772697465202225732220C6
:1034CF00746F2061646472657373203078313131A9
:1034DF000D0A007468656E2072656164206974203E
:1034EF006261636B20616E6420636865636B696EF4
:0A34FF00673A0D0A0025730D0A005C
:03432600D2FF22A1
:03432900C2FF22AE
:03432C00D2FE229C
:03432F00C2FE22A9
:0A42BD0030FE047F0180027F002222
:1041060012432612432C7F067E00123F8C12432C4C
:104116007F067E00123F8C12432F7F067E00023FF1
:014126008C0C
:023A04008F57DA
:103A0600E4F559F5581243297F017E00123F8CE5F3
:103A16005730E70512432C800312432FE55725E064
:103A2600F5577F067E00123F8C1243267F067E00E6
:103A3600123F8C0558E558C3940840C91243297FA4
:103A4600017E00123F8C12432C7F067E00123F8CB3
:103A56001243267F067E00123F8C1242BDEF6005A0
:103A6600435980800353597F1243297F017E0012F8
:043A76003F8CAF5979
:013A7A002229
:103C9200E4F54E1243297F017E00123F8C12432C21
:103CA2007F067E00123F8C1243267F067E00123F63
:103CB2008CE54F25E0F54F1242BDEF6003434F0103
:103CC200054EE54EC3940840CA1243297F017E0087
:103CD200123F8C12432F7F067E00123F8C12432626
:103CE2007F067E00123F8C1243297F017E00123F25
:033CF2008CAF4F45
:013CF50022AC
:103C2C00E4F54FF54E1243297F017E00123F8C12B2
:103C3C00432C7F067E00123F8C1243267F067E00AB
:103C4C00123F8CE54F25E0F54F1242BDEF60034368
:103C5C004F01054EE54EC3940840CA1243297F011B
:103C6C007E00123F8C12432C7F067E00123F8C127A
:103C7C0043267F067E00123F8C1243297F017E0073
:053C8C00123F8CAF4F58
:013C91002210
:10400B001243297F017E00123F8C12432F7F067EC5
:10401B0000123F8C12432612432F7F067E00123F65
:10402B008C12432C7F067E00123F8C12432C1243C2
:08403B00267F067E00023F8C87
:042995008C3A8D3BB0
:102999008B3F8A408941E53B453A7003FEFF22E4BB
:1029A900F542F5431241067FA0123A048F3EE53EF7
:1029B90030E71B12400B7F017E001241F40543E50D
:1029C9004370020542C3940AE542940040D6E543A8
:1029D9004542600F7BFF7A34796F85426C85436D80
:1029E900120C05E543640A4542700812400B7EFF4C
:1029F9007FFF22E53CFF123A048F3EE53E30E708AF
:102A090012400B7EFF7FFE22AF3D123A048F3EE556
:102A19003E30E70812400B7EFF7FFD2212432C7FD8
:102A2900067E00123F8C1241067FA1123A048F3EA6
:102A3900E53E30E70812400B7EFF7FFC22E4F542B9
:102A4900F543E53B24FFFFE53A34FFFEC3E5439F29
:102A5900E5429E501D123C92AB3FAA40A9418543D5
:102A690082854283EF1201740543E54370020542F2
:102A790080D0123C2CAB3FAA40A9418543828542B4
:0B2A890083EF12017412400BE4FEFF0B
:012A9400221F
:062E17008B4D8A4E894F2D
:102E1D00EF7805C333CE33CED8F92DF556EE3CF50C
:102E2D0055E4F553F5541241067FA0123A048F5222
:102E3D00E55230E71B12400B7F017E001241F40575
:102E4D0054E55470020553C3940AE553940040D6DB
:102E5D00E5544553600F7BFF7A34798B85536C8530
:102E6D00546D120C05E554640A4553700812400B5D
:102E7D007EFF7FFF22E555FF123A048F52E5523057
:102E8D00E70812400B7EFF7FFE22AF56123A048FE9
:102E9D0052E55230E70812400B7EFF7FFD22E4F52C
:102EAD0053F554C3E5549551E5539550502CAB4D06
:102EBD00AA4EA94F855482855383120135FF123ACC
:102ECD00048F52E55230E70812400B7EFF7FFC2243
:102EDD000554E5547002055380C912400BE4FEFF02
:012EED0022C2
:1036C2008B3E8A3F8940E53DAE3C7805CEC313CEA2
:1036D20013D8F9F5428E41754300E53D541FF54478
:1036E2008C458D46E54645456063C374209544FF8D
:1036F200E49543FED3E5469FE5459E500885454740
:1037020085464880048E478F48AB3EAA3FA9408534
:103712004750854851AD44AC43AF42AE41122E17DB
:10372200EF4E600122E5482540F540E547353FF57B
:103732003FC3E5469548F546E5459547F5450542BB
:10374200E54270020541E4F543F5448097E4FEFF4B
:013752002254
:0637E0008B348A358936A6
:1037E600EF640260111203DA8B6C8A6D896E7BFFBF
:1037F6007A3479A8806B7BFF7A3479C4120C05ABD6
:1038060034AA35A9369000031204491241CBAC06FE
:10381600AD07AB34AA35A936900003120449753CAE
:1038260001753D111236C27E007F147D007B017A40
:103836000079CA12063A7BFF7A3479E2120C057BCC
:10384600017A0079CA753C01753D117D137C001221
:103856002995756C01756D00756ECA7BFF7A357991
:0438660004120C0537
:01386A00223B
:1030680045455020666174616C206572726F722EDE
:10307800005772697465456E61626C653A454550E2
:1030880020666174616C206572726F722E004865EB
:103098006C6C6F20776F726C642E204E6F772054A3
:1030A800657374204D323550383020726561642F55
:1030B80077726974652F65726173652066756E63D2
:1030C80074696F6E2E00426567696E204572617380
:1030D80065204D32355038302E0D0A004572617327
:1030E80065204D323550383020456E642E20746886
:1030F800656E2077726974653A0D0A00436F6E74C5
:10310800656E742072656164206261636B3A0D0AB2
:063118000025730D0A0002
:0441950041025D0086
:04431F000000002278
:0C42A600530703EF44DCF5CE75CDC022B9
:0942EC00530703EF44DCF5CE2278
:1041470090016BE0FCA3E0FDA3E0FEA3E0FF1203F8
:014157005215
:0D4158008FCFE5CD30E7FB75CD80AFCF22D6
:08430500C2E912431F024158F6
:0A4279007F05124305E4FF124158CF
:05428300D2E902431F17
:103DB900E4F568F567F566F565E47FA07E0FFDFC1F
:103DC900AB68AA67A966A865C312034150251242C8
:103DD90079EF30E0337F017E001241F4E568240178
:103DE900F568E43567F567E43566F566E43565F544
:103DF9006580C690025DE0C3940A5003E004F07B3D
:083E0900FF7A307968120C0504
:013E1100228E
:103CF600123DB97F06124305124283E4F563F5626D
:103D0600F561F560E47FA07E0FFDFCAB63AA62A9B6
:103D160061A860C31203415025124279EF20E133B6
:103D26007F017E001241F4E5632401F563E4356208
:103D3600F562E43561F561E43560F56080C69002B0
:103D46005DE0C3940A5003E004F07BFF7A30797992
:033D5600120C0547
:013D59002247
:1041B6008F22123DB9123CF67F01124305AF22123F
:0541C600415802428394
:103FD0008F5F8E5E8D5D8C5C123DB9123CF67FD892
:103FE000124305AF5FAE5EAD5DAC5C78101203525C
:103FF000124158AF5FAE5EAD5DAC5C780812035203
:0B400000124158AF5F1241580242838A
:102FB200900164ECF0A3EDF0A3EBF0A3EAF0A3E937
:012FC200F01E
:102FC300E4FCFD7808120365A804A905AA06AB076B
:102FD300900164E0FEA3E0FFE4FCFDEB2FFFEA3E7B
:102FE300FEED39FDEC38FC90016B12039D90016BF3
:102FF300A3A3E0FEA3E0FFE4FDFCFBFAF9F8C31290
:103003000341701190016BE0FCA3E0FDA3E0FEA37C
:10301300E0FF123FD0123DB9123CF67F0212430586
:103023007810124147780812414790016BA3A3A37C
:10303300E0FF124158E4FDFCD390016AE09D90014A
:1030430069E09C401D900166E0FBA3E0FAA3E0F970
:103053008D828C83120135FF1241580DBD00010C86
:0530630080D60242834B
:0F428800E4FF1242A6E4FF1241B6E4FF0242EC4B
:10287F00900153ECF0A3EDF0900150EBF0A3EAF0D0
:03288F00A3E9F0CA
:10289200900159EBF0A3EAF0A3E9F090025DE0C3E6
:1028A200940A4026900153E0FEA3E0FF940AEE94BE
:1028B200004003022994785E7C027D01900150E081
:1028C200FBA3E0FAA3E0F90200F6E4FB7A01F9F8CF
:1028D200900155E0FCA3E0FDA3E0FEA3E0FF12029D
:1028E2009990015CEEF0A3EFF0900155A3A3A3E051
:1028F200FFE4AD07FC900153E0FFA3E090015ECF3F
:10290200F0A3EFF090015EE0FEA3E0FF4E70030241
:102912002994C3E49DFB74019CFAD3EF9BEE9A5079
:102922000C90015EA3A3EEF0A3EFF0800EC3E49D32
:10293200900161F074019C900160F0900159E0FBFC
:10294200A3E0FAA3E0F9900160E0FFA3E09001693F
:10295200CFF0A3EFF090015CE0FEA3E0FF122FB2F4
:10296200900160E0FEA3E0FF90015AEE8FF01201A9
:10297200FDC390015FE09FF090015EE09EF0900148
:102982005DE004F0700690015CE004F0E4FCFD02FE
:02299200290614
:012994002220
:0A3753008C5C8D5D8B598A5A895BEE
:10375D008B628A63896490025DE0C3940A401DE523
:10376D005D940AE55C94005069AE5CAF5DA801AC58
:10377D0002AD037B017A02795E0200F6123DB97F3C
:10378D0003124305AF61AE60AD5FAC5E78101203FE
:10379D0052124158AF61AE60AD5FAC5E7808120356
:1037AD0052124158AF61124158E4FDFCC3ED955DD5
:1037BD00EC955C501AE4FF124158AB62AA63A96400
:1037CD008D828C83EF1201740DBD00010C80DD1212
:0237DD00428325
:0137DF0022C7
:103EB40090025DE0C3940A5041E4F539F538F537D2
:103EC400F5367FFF7EFF7D0F7C00AB39AA38A9371A
:103ED400A836C31203415022AF39AE38AD37AC36E1
:103EE400123FD0E42539F539E43538F538E537346F
:0A3EF40001F537E43536F53680C8D5
:013EFE0022A1
:10386B007534307535967E007F407D007B017A0084
:10387B0079CA12063A7BFF7A3079CE120C05123ECA
:10388B00B47BFF7A3079E4120C05AA34A9357BFF9F
:10389B001241CBEF2401FDE43EFCC004C005AA3469
:1038AB00A9357BFF9001551203A900000500D00537
:1038BB00D00412287F7B017A0079CAE4F561756028
:1038CB0005F55FF55E7D40FC123753E4900109F07E
:1038DB007BFF7A317904120C05756C01756D0075DF
:0B38EB006ECA7BFF7A317919020C05D0
:1025E800757365722063616E63656C7320636F6DCC
:1025F8006D756E69636174696F6E2E0D0A00657280
:10260800726F7220636F6D6D756E69636174696F47
:102618006E2E0D0A0063616E206E6F742072656302
:102628006569766520726573706F6E7365206D6F6E
:102638007265207468616E203530207365636F6E33
:10264800642E657869740D0A00770072002D2D2DAF
:102658002D2D2D2D2D2D2D2D2D2D2D2D2D2D757314
:102668006167652D2D2D2D2D2D2D2D2D2D2D2D2DEC
:102678002D2D2D2D2D2D2D2D0D0A007573616765BE
:102688003A2025732077203C616464723E0D0A006D
:10269800746F20777269746520636F6E74656E74E9
:1026A80020746F2073706920666C6173682E0D0A40
:1026B80000466F72206578616D706C653A20786DA0
:1026C8006F64656D207720307831303030300D0AF6
:1026D8000061646472206D757374206265206F6E8A
:1026E8002074686520626F756E64617279206F6608
:1026F80020736563746F72732E0D0A0075736167BA
:10270800653A2025732072203C616464723E203C47
:102718006C656E3E0D0A00746F20726561642063FB
:102728006F6E74656E742066726F6D2073706920A9
:10273800666C6173682E0D0A00466F7220657861B9
:102748006D706C653A20786D6F64656D207220300D
:0C2758007831303031312035350D0A0069
:044199004102680176
:10409500AF43AE42AD41AC407B017A0079CD755A54
:0440A50000755B80C7
:1040A9008F568E558D548C5390015512039DAD5BDF
:0540B900AC5A02287F53
:0831CF007B017A0079CAAD50C2
:0631D7008B538A54895558
:1031DD00E4F55612011C6401600675560102327C3D
:1031ED00AB53AA54A955900001120135FF6D60052E
:1031FD00755602807A9000021201352FF460057524
:10320D005603806B900268E07031FFFEEFF582751A
:10321D008300A3A3A3AB53AA54A9551201352EFEC7
:10322D000FBF80E8AB53AA54A95590008312013506
:10323D006E600575560480377F0122AB53E555242A
:10324D0003F9E43554FA7D807C0012397FAC068C8D
:10325D0057AB53AA54A955900083120135B5570C9D
:10326D00900084120135B507037F01227556057F45
:01327D000050
:01327E00222D
:1041E0008F597B007A0079597D011240BE7F147E81
:0441F000000241F494
:081511008F438E428D418C4096
:10151900E4F5447545FFF546F551900268E070051C
:101529007552848003755285122D3E1243148F4ED5
:101539008E4D8D4C8C4BE54565446003854445E5EE
:10154900441460381470030215E6147003021683FC
:101559001470030216FF240470CE900268E07D0126
:1015690070047F1580027F431241E0854E4A854D04
:1015790049854C48854B4775440180ACC3E54E9578
:101589004AFFE54D9549FEE54C9548FDE54B9547E4
:10159900FCE47BB87A0BF9F8D312034140397B019B
:1015A9007A0079CA7D01123E668F4FE54F6401606A
:1015B900030215319000CAE0640160030215318508
:1015C9004E4A854D49854C48854B477550017546AE
:1015D90001754402021531E4F544021531C3E54EA3
:1015E900954AFFE54D9549FEE54C9548FDE54B9536
:1015F90047FCE47B107A27F9F8D312034140617460
:10160900CA2546F9E43400FA7B01C3E5529546FD43
:10161900123E668F4FE54F2546F546655260030237
:1016290015311231CFEF601D124095E5432480F545
:1016390043E43542F542E43541F541E43540F540AE
:101649007D0202176705517D037F151241E075443C
:1016590001E551C3940A50030215317D040216F0C5
:101669007D057F151241E00551754401E551C3948B
:101679000A50030215317D06806DC3E54E954AFF78
:10168900E54D9549FEE54C9548FDE54B9547FCE44C
:101699007B107A27F9F8D312034140427B017A0083
:1016A90079CA7D01123E668F4FE54F6401600302DE
:1016B90015319000CAE0FBB40115854E4A854D49A4
:1016C900854C48854B47754601754404021531EB35
:1016D900640460030215317D077F060217BB0551BB
:1016E900E551B40A077D087F180217BB7D097F15EC
:1016F9001241E0021776C3E54E954AFFE54D95493B
:10170900FEE54C9548FDE54B9547FCE47B107A27AF
:10171900F9F8D312034150030217A174CA2546F9F7
:10172900E43400FA7B01C3E5529546FD123E668F0B
:101739004FE54F2546F546655260030215311231D2
:10174900CFEF6038124095E5432480F543E43542F4
:10175900F542E43541F541E43540F5407D0A7F061F
:101769001241E0E4F5460550754403F551854E4AAA
:10177900854D49854C48854B4702153105517D0BEF
:101789007F151241E0754403E551C3940A500302E1
:1017990015317D0C7F18801AE4FD7F151241E00593
:1017A90051754403E551C3940A5003021531E4FD10
:0517B9007F180241E071
:0117BE002208
:081216008F438E428D418C4094
:10121E00E4F5487549FFF54A755501F5567557843D
:10122E00F558122D3E1243148F528E518D508C4F05
:10123E00E54965486003854849E5481460311470F6
:10124E000302130A1470030213E0147003021492C3
:10125E0024A07003021510246470C7E4F55685525D
:10126E004E85514D85504C854F4B75480180B3C30B
:10127E00E552954EFFE551954DFEE550954CFDE539
:10128E004F954BFCE47B107A27F9F8D312034140BB
:10129E00507B017A0079CA7D01123E668F54E55467
:1012AE00640160030212309000CAE0FFB4430B7574
:1012BE005801754802755785800DEFB4150FE4F58A
:1012CE0058754802755784755501021230EF7BFF31
:1012DE00B418077A2579E80214E47A2679060214FE
:1012EE00E485524E85514D85504C854F4B0556E544
:1012FE0056C394055003021230021501E4FFFEFDA1
:10130E00FCAB47AA46A945A844C3120341701BFD76
:10131E007F041241E0E4F55685524E85514D8550BD
:10132E004C854F4B754804021230E47F80FEFDFC65
:10133E00AB47AA46A945A844C312034140057553BD
:10134E008080128547537E007F867D1A7B017A004E
:10135E0079CA12063A9000CA7401F0A3E555F0F46A
:10136E00A3F07B017A0079CDE553FD7C00854361C6
:10137E0085426085415F85405E123753E55860199E
:10138E007B017A0079CD7D807C0012397FAC06908E
:10139E00014DECF0A3EFF08019E4FFFE74CD2FF5B4
:1013AE0082E43400F583E02EFE0FBF80EF90014DF6
:1013BE00EEF07B017A0079CAAD571240BE85524ECF
:1013CE0085514D85504C854F4B75560A7548030215
:1013DE001230C3E552954EFFE551954DFEE5509501
:1013EE004CFDE54F954BFCE47B107A27F9F8D312B0
:1013FE00034140767B017A0079CA7D01123E668FE9
:10140E0054E554640160030212309000CAE0B40641
:10141E0039E4FCFDFEE5432553F543EE3542F54236
:10142E00ED3541F541EC3540F540AF53AB07C3E523
:10143E00479BF547E5469400F546E5459400F5458E
:10144E00E5449400F544055580089000CAE0FFB4C9
:10145E001506754802021230EF7BFFB418067A2586
:10146E0079E880047A267906806C85524E85514D36
:10147E0085504C854F4B0556E556C39405500302D7
:10148E001230806FC3E552954EFFE551954DFEE546
:10149E0050954CFDE54F954BFCE47B107A27F9F8FF
:1014AE00D312034140357B017A0079CA7D01123E89
:1014BE00668F54E554640160030212309000CAE056
:1014CE00FFB406028036EF7BFFB418067A2579E862
:1014DE0080047A267906120C05802185524E85519C
:1014EE004D85504C854F4B0556E556C3940550031C
:1014FE000212307BFF7A26791D120C0575486402A4
:02150E00123099
:0115100022B8
:082463008F348B358A3689376E
:10246B00E53464017003022581AB35AA36A9379098
:10247B000003120449A801AC02AD037BFF7A267955
:10248B005112061DEF7059E5346403600302258178
:10249B00AB35AA36A937900006120449122B838F4D
:1024AB003B8E3A8D398C38EC335003022581E4FF97
:1024BB00FE7D0FFCAB3BAA3AA939A838D312032BEC
:1024CB004003022581E53BFFE53AFEE4FDFCEE4FC0
:1024DB006003022581AF3BAE3AAD39AC3802151122
:1024EB00AB35AA36A937900003120449A801AC02F8
:1024FB00AD037BFF7A26795312061DEF7078E53416
:10250B0064047072AB35AA36A937900006120449E1
:10251B00122B838F3B8E3A8D398C38EC3340577F9F
:10252B00FF7EFF7D0F7C00AB3BAA3AA939A838D3BD
:10253B0012032B5041AB35AA36A937900009120470
:10254B0049122B838F3F8E3E8D3D8C3CE4FFFEFD6D
:10255B00FCAB3FAA3EA93DA83CD312032B401785E9
:10256B003F47853E46853D45853C44AF3BAE3AAD46
:10257B0039AC380212167BFF7A267955120C05AB53
:10258B0035AA36A9371203DA8B6C8A6D896E7BFFFD
:10259B007A267983120C057BFF7A267998120C0523
:1025AB007BFF7A2679B9120C057BFF7A2679D91233
:1025BB000C05AB35AA36A9371203DA8B6C8A6D89F9
:1025CB006E7BFF7A277904120C057BFF7A27791F24
:0C25DB00120C057BFF7A277941120C05D9
:0125E70022D1
:1033EF00023EFFE493A3F8E493A34003F68001F2B7
:1033FF0008DFF48029E493A3F85407240CC8C333DF
:10340F00C4540F4420C8834004F456800146F6DFAD
:10341F00E4800B0102040810204080904182E47E7A
:10342F00019360BCA3FF543F30E509541FFEE493A2
:10343F00A360010ECF54C025E060A840B8E493A369
:10344F00FAE493A3F8E493A3C8C582C8CAC583CA94
:10345F00F0A3C8C582C8CAC583CADFE9DEE780BE4C
:01419D000021
:10002600E709F608DFFA8046E709F208DFFA803EBC
:1000360088828C83E709F0A3DFFA8032E309F608A9
:10004600DFFA8078E309F208DFFA807088828C8311
:10005600E309F0A3DFFA806489828A83E0A3F608C5
:10006600DFFA805889828A83E0A3F208DFFA804C9F
:1000760080D280FA80C680D4806980F28033801076
:1000860080A680EA809A80A880DA80E280CA8033DF
:1000960089828A83ECFAE493A3C8C582C8CCC58357
:1000A600CCF0A3C8C582C8CCC583CCDFE9DEE78027
:1000B6000D89828A83E493A3F608DFF9ECFAA9F0A6
:1000C600EDFB2289828A83ECFAE0A3C8C582C8CCFC
:1000D600C583CCF0A3C8C582C8CCC583CCDFEADE15
:1000E600E880DB89828A83E493A3F208DFF980CC77
:1000F60088F0EF60010E4E60C388F0ED2402B40470
:100106000050B9F582EB2402B4040050AF23234516
:06011600822390007673C5
:10011C00BB010689828A83E0225002E722BBFE02E1
:09012C00E32289828A83E4932214
:10013500BB010CE58229F582E5833AF583E022507F
:1001450006E92582F8E622BBFE06E92582F8E222C9
:0D015500E58229F582E5833AF583E49322E3
:10016200BB010689828A83F0225002F722BBFE017C
:02017200F32276
:10017400F8BB010DE58229F582E5833AF583E8F0C1
:10018400225006E92582C8F622BBFE05E92582C86D
:02019400F22255
:10019600EF8DF0A4A8F0CF8CF0A428CE8DF0A42E7D
:0201A600FE2237
:1001A800BC000BBE0029EF8DF084FFADF022E4CC3B
:1001B800F875F008EF2FFFEE33FEEC33FCEE9DEC04
:1001C800984005FCEE9DFE0FD5F0E9E4CEFD22ED4A
:1001D800F8F5F0EE8420D21CFEADF075F008EF2F94
:1001E800FFED33FD4007985006D5F0F222C398FD85
:0501F8000FD5F0EA2222
:1001FD00C5F0F8A3E028F0C5F0F8E582158270028D
:06020D001583E038F02229
:10021300BB010A89828A83E0F5F0A3E022500687B6
:10022300F009E71922BBFE07E3F5F009E319228978
:0B023300828A83E493F5F074019322AB
:10023E00BB010A89828A83F0E5F0A3F0225006F70B
:0F024E0009A7F01922BBFE06F3E5F009F3192208
:10025D0075F008758200EF2FFFEE33FECD33CDCC58
:10026D0033CCC58233C5829BED9AEC99E5829840DB
:10027D000CF582EE9BFEED9AFDEC99FC0FD5F0D6B8
:10028D00E4CEFBE4CDFAE4CCF9A88222B800C1B9E2
:10029D000059BA002DEC8BF084CFCECDFCE5F0CB20
:1002AD00F97818EF2FFFEE33FEED33FDEC33FCEB59
:1002BD0033FB10D703994004EB99FB0FD8E5E4F914
:1002CD00FA227818EF2FFFEE33FEED33FDEC33FC01
:1002DD00C933C910D7059BE99A4007EC9BFCE99AF5
:1002ED00F90FD8E0E4C9FAE4CCFB2275F010EF2F3A
:1002FD00FFEE33FEED33FDCC33CCC833C810D7073A
:10030D009BEC9AE899400AED9BFDEC9AFCE899F874
:0E031D000FD5F0DAE4CDFBE4CCFAE4C8F92207
:10032B00EB9FF5F0EA9E42F0E99D42F0EC6480C849
:06033B0064809845F022E9
:10034100EB9FF5F0EA9E42F0E99D42F0E89C45F012
:010351002289
:10035200E8600FECC313FCED13FDEE13FEEF13FF89
:03036200D8F122AD
:10036500E8600FEFC333FFEE33FEED33FDEC33FCF6
:03037500D8F1229A
:0C037800E6FC08E6FD08E6FE08E6FF22B1
:0D038400E6FB08E6F908E6FA08E6CBF822E9
:0C039100ECF608EDF608EEF608EFF62298
:0C039D00ECF0A3EDF0A3EEF0A3EFF022D3
:1003A900A8828583F0D083D0821203C01203C012C1
:1003B90003C01203C0E473E493A3C583C5F0C583E6
:1003C900C8C582C8F0A3C583C5F0C583C8C582C89E
:0103D9002201
:1003DA00BB010789828A8302070F5005E9F80206E2
:1003EA00DDBBFE05E9F802072189828A8302073309
:1003FA00BB011A89828A83D0F0D0E0F8D0E0F9D024
:10040A00E0FAD0E0FBE8C0E0C0F00207185016E9B5
:10041A00F8D083D082D0E0F9D0E0FAD0E0FBC082F5
:10042A00C083020706BBFE16E9F8D083D082D0E06B
:0F043A00F9D0E0FAD0E0FBC082C08302072A228B
:10044900BB010DE58229F582E5833AF58302070FA1
:100459005007E92582F80206DDBBFE07E92582F887
:10046900020721E58229F582E5833AF583020733FC
:10047900D083D082F8E4937012740193700DA3A312
:1004890093F8740193F5828883E473740293686026
:06049900EFA3A3A380DF26
:100BA300E578246CF8E60578227869300702786CDA
:100BB300E475F0011206E602011C2000EB7F2ED241
:100BC300008018EF540F2490D43440D4FF30040B2A
:100BD300EF24BFB41A0050032461FFE579600215C6
:100BE30079057CE57C7002057B30070D7869E47537
:100BF300F0011206E6EF0201620242FD7403D2071E
:100C03008003E4C207F5788B698A6A896BE4F57916
:100C1300F57BF57CE57960077F20120BDE80F575A7
:100C23007AFFC201C200C202C203C205C206C208E1
:100C3300120BACFF700D3007057F00120BEFAF7C7A
:100C4300AE7B22B4255FC2D5C204120BACFF24D005
:100C5300B40A00501A75F00A787930D50508B6FF42
:100C63000106C6A426F620D5047002D20380D92437
:100C7300CFB41A00EF5004C2E5D204020DEFD20143
:100C830080C6D20080C0D20280BCD2D580BAD20541
:100C930080B47F20120BDE2002077401B579004077
:100CA300F1120BA3FF120BDE020C17D208D206803F
:100CB30095120BA3FB120BA3FA120BA3F94A4B7069
:100CC3000679C07A0E7BFF20022EE579602A7E002A
:100CD3008E8275830012013560060EEE657A70F020
:100CE300C2D5EBC0E0EAC0E0E9C0E0EE120E36D0B8
:100CF300E0F9D0E0FAD0E0FB12011CFF60AAEBC0E0
:100D0300E0EAC0E0E9C0E0120BDED0E02401F9D054
:100D1300E03400FAD0E0FBE57A0460DCD57AD980D0
:100D2300877BFF7A0E7932D202809C791080027918
:100D330008C206C2088008D2D5790A8004790AC29B
:100D4300D5E57A047002F57AE4FAFDFEFF120BA3EF
:100D5300FC7B08200113120BA3FD7B1030000A1249
:100D63000BA3FE120BA3FF7B20EC3382D592D5504D
:100D730013C3E43000069FFFE49EFEE42001039DBD
:100D8300FDE49CFCE4CBF8C201EC700CCFCECDCCDF
:100D9300E824F8F870F38017C3EF33FFEE33FEED6A
:100DA30033FDEC33FCEB33FB994002FB0FD8E9EB4B
:100DB300300105F8D0E0C448B201C0E00AEC4D4E62
:100DC3004F78207B0070C2EAB57A0040BCC0E012C5
:100DD3000E38D0F0D0E0200104C4C0E0C4B201C09A
:100DE300F0120BC7D0F0D5F0EB020C171204790CFC
:100DF300B4530D2E580C854C0C81420D324F0D3AD5
:0F0E0300440D3A490C9A430D40550D24460D24D9
:100E1200450D24470EE0500C892D0C8D2E0CB02B65
:100E22000C91230CAE200EC92A0C494800000CA8D4
:100E32003F3F3F00790AA2D5200314300509B910BB
:100E4200020404B9080104A2D520060250010420BC
:100E520002689202B579005034C0E07F2030031955
:100E62007F30A20272067205500F120E8FC202C2AA
:100E720006C205C2087F30800F300503E9C0E012C8
:100E82000BDE300503D0E0F9D0E0B579CC300517A0
:100E92007F30B9100C120BDE7F583004077F788048
:100EA20003B90803120BDE3002057F2D020BDE7F31
:100EB200202008F87F2B2006F322920280CF286E92
:100EC200756C6C2900D201120BA33001F8C20178B3
:100ED2007930D50108F6020C492D50434958120BBE
:100EE200A32403B405004001E4900EDB93120BCF60
:0D0EF200743A120BCFD203757904020D2E55
:100EFF00E55730030104F823282445F822784230BF
:100F0F0003027845E475F0011206E602011C60EC5D
:100F1F00C55B7002155A14C55B200304FF02431A08
:100F2F00784274FFF5F00206F6FF024207E55860BB
:100F3F0006D558037F002220030F12422CEF6008C2
:100F4F00055BE55B7002055A2278421206DD12013D
:100F5F001CFF60E97842E475F0011206E680DE12AC
:100F6F000F46EFC0E0120F38D0E040F380A0D2035D
:100F7F008002C2038B428A438944E4F559F557F541
:100F8F005AF55B755800C202C200C201C204120FAB
:100F9F000CFF7005AF597E0022B42530120F0CFFE5
:100FAF0024D0B40A00500C75F00AC558A42558F582
:100FBF005880E924CFB41A00EF5002C2E50211E2C3
:100FCF00D20180D8D20080D4D20480D0EF120F3853
:100FDF005008120F6EEF600E80A9EFC0E0120F469F
:100FEF00D0E06F609EEF6074120F1D80A7120F4646
:100FFF00EF6069E558700705588003120F46EF60E0
:10100F001420040E120EFFE475F0011206E6EF1223
:10101F000162D558E62004040557055980BA120F0E
:10102F003CEFC0E0120F38D0E05004120F1DE4FF68
:10103F0020040E120EFFE475F0011206E6EF120106
:10104F0062EF70DA20040405570559808BE558606C
:10105F00020558120F6E120F3CEF70C6300304E4F6
:10106F00120F1DE5596003020FA37EFF7FFF2220A1
:10107F00041174FFFCFDFEFF120EFF1206DD1206B7
:10108F00C30557020F92D0E080D27900800A791001
:10109F00800679088002790AD205E5586002055862
:1010AF00E9C0E0120F6EEF60DD120F46BF2D04D2C4
:1010BF00028003BF2B09120F6EEF60CA120F3CD0D4
:1010CF00E0B40A028033B40802802EBF30277002CA
:1010DF007408C205C0E0120F3CD0E0BF7802800355
:1010EF00BF58160558D558028007D55804D2058029
:1010FF000B741080197002740ABF000AEFF8E4FC39
:10110F00FDFEFF021195C0E0EF120F1DD0E0F9E4D4
:10111F00FCFDFEFFE9C0E0ECC0E0EDC0E0EEC0E09A
:10112F00EFC0E0120F3CEFF8D0E0FFD0E0FED0E0D0
:10113F00FDD0E0FCD0F0E8604DB461004007B47B17
:10114F00005002C2E524D0503DFA24F6500724F98E
:10115F005034240AFAEAB5F000502BCFA9F0A42F8F
:10116F00FF92D5E9C5F0CEA4A2D53EFE92D5E9C532
:10117F00F0CDA4A2D53DFD92D5E9C5F0CCA4A2D562
:0B118F003CFCC205808EE8C0E020049C
:10119A002A20050805593002031206B5120EFF125D
:1011AA0006DD055720000B20010DEE8FF012023EDE
:1011BA0080091206C38004EF120162D0E0120F1DEB
:1011CA00020F92200410120EFF1206DD0557E55A8F
:1011DA00855BF012023E80E8120479105C53109D80
:1011EA00580FD34C0FCF420FAB4810A14F10A54454
:1011FA000FFC4310994910A555107E46107E4510E4
:0C120A007E470FD72A11CD4E00000FDBED
:10049F00E3F5F009E208B5F06D606B80F3E3F5F07A
:1004AF0009E608B5F060605E80F387F009E608B5ED
:1004BF00F054605280F487F009E208B5F0486046C6
:1004CF0080F488828C8387F009E0A3B5F03860361A
:1004DF0080F488828C8387F009E493A3B5F02760BA
:1004EF002580F388828C83E3F5F009E0A3B5F0163D
:1004FF00601480F388828C83E3F5F009E493A3B54D
:10050F00F004600280F20205CA808580E7808E8049
:10051F00D2803C8015806C807E809B80B5808B80E4
:10052F00A1804F8070803A0205D689828A83ECFAC7
:10053F00E493F5F0A3C8C582C8CCC583CCE493A3DC
:10054F00C8C582C8CCC583CCB5F070606E80E18918
:10055F00828A83E493F5F0A3E208B5F05E605C80D5
:10056F00F289828A83E0F5F0A3E608B5F04D604B7F
:10057F0080F389828A83E0F5F0A3E208B5F03C604E
:10058F003A80F389828A83E493F5F0A3E608B5F005
:10059F002A602880F2805389828A83ECFAE493F5EB
:1005AF00F0A3C8C582C8CCC583CCE0A3C8C582C898
:1005BF00CCC583CCB5F004600280E27FFFB5F002BA
:1005CF000F2240027F012289828A83ECFAE0F5F044
:1005DF00A3C8C582C8CCC583CCE0A3C8C582C8CC8C
:1005EF00C583CCB5F0D560D380E389828A83ECFADA
:1005FF00E0F5F0A3C8C582C8CCC583CCE493A3C8EB
:10060F00C582C8CCC583CCB5F0B160AF80E288F0AD
:10061F00ED2402B4040050A3F582EB2402B40400CD
:0B062F00509923234582239005187387
:1041CB00E4FFFE12011C600C0FEF70010E09E97089
:0541DB00F20A80EF2252
:102B83008B408A418942AB40AA41A94212011CFFF2
:102B9300124207500D74012542F542E43541F541D7
:102BA30080E4D200AB40AA41A94212011CFF642B6E
:102BB3006004EFB42D1BAB400542E542AA4170020D
:102BC300054114F912011C642D6003D38001C392E3
:102BD30000E4F546F545F544F543AB40AA41A94267
:102BE30012011CFF124297505CE47F0AFEFDFCAB0E
:102BF30046AA45A944A843120666C8ECC8EDC0E03E
:102C0300EEC0E0EFC0E0AB40AA41A94212011CFFB5
:102C13003395E0FEEF24D0FFEE34FFFEE4FCFDD05D
:102C2300E0FBD0E0FAD0E0F9EB2FF546EA3EF545BC
:102C3300ED39F544EC38F54374012542F542E435AA
:102C430041F541809530000AAF46AE45AD44AC43F3
:0E2C5300800BAF46AE45AD44AC431206B52231
:10063A00EF4E6012EF60010EEDBB010B89828A83D7
:10064A00F0A3DFFCDEFA2289F05007F709DFFCA9E4
:0C065A00F022BBFEFCF309DFFCA9F0223B
:10066600E88FF0A4CC8BF0A42CFCE98EF0A42CFC33
:100676008AF0EDA42CFCEA8EF0A4CDA8F08BF0A4B1
:100686002DCC3825F0FDE98FF0A42CCD35F0FCEB10
:100696008EF0A4FEA9F0EB8FF0A4CFC5F02ECD39D5
:0F06A600FEE43CFCEAA42DCE35F0FDE43CFC2242
:0E06B500C3E49FFFE49EFEE49DFDE49CFC2256
:1006C300BB010789828A8302039D5005E9F802036F
:0A06D30091BBFE05E9F802073F2283
:0906DD00E6FB08E6FA08E6F92242
:1006E600FAE6FB0808E6F925F0F618E6CA3AF62215
:1006F600FAE6FB0808E625F0F9F618E63AFAF622D5
:09070600EBF608EAF608E9F62218
:09070F00E0FBA3E0FAA3E0F922EB
:09071800EBF0A3EAF0A3E9F022E2
:09072100E2FB08E2FA08E2F92209
:09072A00EBF208EAF208E9F22200
:0C073300E493FB740193FA740293F92222
:10422C0010090B1242C7BF0D027F0A0242FDAF08F4
:01423C00225F
:05431A008F08D209220A
:0F429700EFC394304007EF943A50028001C322E6
:10420700EFC394094005EF940E4003BF2003D3800A
:0342170001C322BE
:0C073F00ECF208EDF208EEF208EFF222F6
:0A42C7003098FDAF99C2987E0022E6
:00000001FF
